{
  "contractName": "ERC20",
  "abi": [
    {
      "inputs": [],
      "stateMutability": "nonpayable",
      "type": "constructor"
    },
    {
      "anonymous": false,
      "inputs": [
        {
          "indexed": true,
          "internalType": "address",
          "name": "from",
          "type": "address"
        },
        {
          "indexed": true,
          "internalType": "address",
          "name": "to",
          "type": "address"
        },
        {
          "indexed": false,
          "internalType": "uint256",
          "name": "amount",
          "type": "uint256"
        }
      ],
      "name": "Approval",
      "type": "event"
    },
    {
      "anonymous": false,
      "inputs": [
        {
          "indexed": true,
          "internalType": "address",
          "name": "from",
          "type": "address"
        },
        {
          "indexed": true,
          "internalType": "address",
          "name": "to",
          "type": "address"
        },
        {
          "indexed": false,
          "internalType": "uint256",
          "name": "amount",
          "type": "uint256"
        }
      ],
      "name": "Transfer",
      "type": "event"
    },
    {
      "stateMutability": "payable",
      "type": "fallback",
      "payable": true
    },
    {
      "stateMutability": "payable",
      "type": "receive",
      "payable": true
    },
    {
      "inputs": [
        {
          "internalType": "address",
          "name": "account",
          "type": "address"
        },
        {
          "internalType": "uint256",
          "name": "amount",
          "type": "uint256"
        }
      ],
      "name": "mint",
      "outputs": [],
      "stateMutability": "nonpayable",
      "type": "function"
    },
    {
      "inputs": [
        {
          "internalType": "address",
          "name": "recepint",
          "type": "address"
        },
        {
          "internalType": "uint256",
          "name": "amount",
          "type": "uint256"
        }
      ],
      "name": "issueSalary",
      "outputs": [
        {
          "internalType": "bool",
          "name": "",
          "type": "bool"
        }
      ],
      "stateMutability": "nonpayable",
      "type": "function"
    },
    {
      "inputs": [],
      "name": "creditSalary",
      "outputs": [
        {
          "internalType": "bool",
          "name": "",
          "type": "bool"
        }
      ],
      "stateMutability": "nonpayable",
      "type": "function"
    },
    {
      "inputs": [],
      "name": "totalSupply",
      "outputs": [
        {
          "internalType": "uint256",
          "name": "",
          "type": "uint256"
        }
      ],
      "stateMutability": "view",
      "type": "function",
      "constant": true
    },
    {
      "inputs": [
        {
          "internalType": "address",
          "name": "account",
          "type": "address"
        }
      ],
      "name": "balanceOf",
      "outputs": [
        {
          "internalType": "uint256",
          "name": "",
          "type": "uint256"
        }
      ],
      "stateMutability": "view",
      "type": "function",
      "constant": true
    },
    {
      "inputs": [],
      "name": "purchaseTokens",
      "outputs": [],
      "stateMutability": "payable",
      "type": "function",
      "payable": true
    },
    {
      "inputs": [
        {
          "internalType": "uint256",
          "name": "newPrice",
          "type": "uint256"
        }
      ],
      "name": "adjustTokenPrice",
      "outputs": [],
      "stateMutability": "nonpayable",
      "type": "function"
    },
    {
      "inputs": [
        {
          "internalType": "address",
          "name": "recepint",
          "type": "address"
        },
        {
          "internalType": "uint256",
          "name": "amount",
          "type": "uint256"
        }
      ],
      "name": "transfer",
      "outputs": [
        {
          "internalType": "bool",
          "name": "",
          "type": "bool"
        }
      ],
      "stateMutability": "nonpayable",
      "type": "function"
    },
    {
      "inputs": [
        {
          "internalType": "address",
          "name": "spender",
          "type": "address"
        },
        {
          "internalType": "uint256",
          "name": "amount",
          "type": "uint256"
        }
      ],
      "name": "approve",
      "outputs": [
        {
          "internalType": "bool",
          "name": "",
          "type": "bool"
        }
      ],
      "stateMutability": "nonpayable",
      "type": "function"
    },
    {
      "inputs": [
        {
          "internalType": "address",
          "name": "approver",
          "type": "address"
        },
        {
          "internalType": "address",
          "name": "spender",
          "type": "address"
        }
      ],
      "name": "allowance",
      "outputs": [
        {
          "internalType": "uint256",
          "name": "",
          "type": "uint256"
        }
      ],
      "stateMutability": "view",
      "type": "function",
      "constant": true
    },
    {
      "inputs": [
        {
          "internalType": "address",
          "name": "from",
          "type": "address"
        },
        {
          "internalType": "address",
          "name": "to",
          "type": "address"
        },
        {
          "internalType": "uint256",
          "name": "amount",
          "type": "uint256"
        }
      ],
      "name": "transferFrom",
      "outputs": [
        {
          "internalType": "bool",
          "name": "",
          "type": "bool"
        }
      ],
      "stateMutability": "nonpayable",
      "type": "function"
    }
  ],
  "bytecode": "0x608060405260646004553480156200001657600080fd5b5061271060028190555033600360006101000a81548173ffffffffffffffffffffffffffffffffffffffff021916908373ffffffffffffffffffffffffffffffffffffffff160217905550600254600080600360009054906101000a900473ffffffffffffffffffffffffffffffffffffffff1673ffffffffffffffffffffffffffffffffffffffff1673ffffffffffffffffffffffffffffffffffffffff1681526020019081526020016000208190555060028054620000d89190620000e4565b6005819055506200017e565b6000620000f18262000145565b9150620000fe8362000145565b9250817fffffffffffffffffffffffffffffffffffffffffffffffffffffffffffffffff04831182151516156200013a57620001396200014f565b5b828202905092915050565b6000819050919050565b7f4e487b7100000000000000000000000000000000000000000000000000000000600052601160045260246000fd5b611b5c806200018e6000396000f3fe60806040526004361061009f5760003560e01c80633290ce29116100645780633290ce29146101bd57806340c10f19146101c757806355b2f2d4146101f057806370a0823114610219578063a9059cbb14610256578063dd62ed3e14610293576100a6565b8062fed26a146100b0578063095ea7b3146100db57806318160ddd1461011857806323b872dd146101435780632cad00b614610180576100a6565b366100a657005b6100ae6102d0565b005b3480156100bc57600080fd5b506100c56104f4565b6040516100d2919061178d565b60405180910390f35b3480156100e757600080fd5b5061010260048036038101906100fd91906114a4565b6106e2565b60405161010f919061178d565b60405180910390f35b34801561012457600080fd5b5061012d61089b565b60405161013a91906118c8565b60405180910390f35b34801561014f57600080fd5b5061016a60048036038101906101659190611455565b6108a5565b604051610177919061178d565b60405180910390f35b34801561018c57600080fd5b506101a760048036038101906101a291906114a4565b610c13565b6040516101b4919061178d565b60405180910390f35b6101c56102d0565b005b3480156101d357600080fd5b506101ee60048036038101906101e991906114a4565b610e64565b005b3480156101fc57600080fd5b50610217600480360381019061021291906114e0565b61109b565b005b34801561022557600080fd5b50610240600480360381019061023b91906113f0565b6110a5565b60405161024d91906118c8565b60405180910390f35b34801561026257600080fd5b5061027d600480360381019061027891906114a4565b6110ed565b60405161028a919061178d565b60405180910390f35b34801561029f57600080fd5b506102ba60048036038101906102b59190611419565b61133f565b6040516102c791906118c8565b60405180910390f35b600360009054906101000a900473ffffffffffffffffffffffffffffffffffffffff1673ffffffffffffffffffffffffffffffffffffffff163373ffffffffffffffffffffffffffffffffffffffff161415610361576040517f08c379a000000000000000000000000000000000000000000000000000000000815260040161035890611808565b60405180910390fd5b670de0b6b3a76400003410156103ac576040517f08c379a00000000000000000000000000000000000000000000000000000000081526004016103a390611848565b60405180910390fd5b600073ffffffffffffffffffffffffffffffffffffffff163373ffffffffffffffffffffffffffffffffffffffff1614156103e657600080fd5b600454670de0b6b3a7640000346103fd919061194a565b610407919061197b565b6000803373ffffffffffffffffffffffffffffffffffffffff1673ffffffffffffffffffffffffffffffffffffffff168152602001908152602001600020600082825461045491906118f4565b92505081905550600454670de0b6b3a764000034610472919061194a565b61047c919061197b565b600080600360009054906101000a900473ffffffffffffffffffffffffffffffffffffffff1673ffffffffffffffffffffffffffffffffffffffff1673ffffffffffffffffffffffffffffffffffffffff16815260200190815260200160002060008282546104eb91906119d5565b92505081905550565b600080600654623761e761050891906118f4565b9050804211801561051b57506000600654115b61055a576040517f08c379a0000000000000000000000000000000000000000000000000000000008152600401610551906117e8565b60405180910390fd5b60005b6007805490508110156106d95760086000600783815481106105a8577f4e487b7100000000000000000000000000000000000000000000000000000000600052603260045260246000fd5b9060005260206000200160009054906101000a900473ffffffffffffffffffffffffffffffffffffffff1673ffffffffffffffffffffffffffffffffffffffff1673ffffffffffffffffffffffffffffffffffffffff168152602001908152602001600020546000806007848154811061064b577f4e487b7100000000000000000000000000000000000000000000000000000000600052603260045260246000fd5b9060005260206000200160009054906101000a900473ffffffffffffffffffffffffffffffffffffffff1673ffffffffffffffffffffffffffffffffffffffff1673ffffffffffffffffffffffffffffffffffffffff16815260200190815260200160002060008282546106bf91906118f4565b9250508190555080806106d190611a51565b91505061055d565b50600191505090565b60008073ffffffffffffffffffffffffffffffffffffffff163373ffffffffffffffffffffffffffffffffffffffff161415801561074d5750600073ffffffffffffffffffffffffffffffffffffffff168373ffffffffffffffffffffffffffffffffffffffff1614155b61075657600080fd5b60008211610799576040517f08c379a0000000000000000000000000000000000000000000000000000000008152600401610790906117c8565b60405180910390fd5b81600160003373ffffffffffffffffffffffffffffffffffffffff1673ffffffffffffffffffffffffffffffffffffffff16815260200190815260200160002060008573ffffffffffffffffffffffffffffffffffffffff1673ffffffffffffffffffffffffffffffffffffffff168152602001908152602001600020600082825461082591906118f4565b925050819055508273ffffffffffffffffffffffffffffffffffffffff163373ffffffffffffffffffffffffffffffffffffffff167f8c5be1e5ebec7d5bd14f71427d1e84f3dd0314c0f7b2291e5b200ac8c7c3b9258460405161088991906118c8565b60405180910390a36001905092915050565b6000600254905090565b60008060008573ffffffffffffffffffffffffffffffffffffffff1673ffffffffffffffffffffffffffffffffffffffff1681526020019081526020016000205482111580156109715750600160008573ffffffffffffffffffffffffffffffffffffffff1673ffffffffffffffffffffffffffffffffffffffff16815260200190815260200160002060003373ffffffffffffffffffffffffffffffffffffffff1673ffffffffffffffffffffffffffffffffffffffff168152602001908152602001600020548211155b6109b0576040517f08c379a00000000000000000000000000000000000000000000000000000000081526004016109a7906118a8565b60405180910390fd5b600073ffffffffffffffffffffffffffffffffffffffff168473ffffffffffffffffffffffffffffffffffffffff1614158015610a1a5750600073ffffffffffffffffffffffffffffffffffffffff168373ffffffffffffffffffffffffffffffffffffffff1614155b610a2357600080fd5b60008211610a66576040517f08c379a0000000000000000000000000000000000000000000000000000000008152600401610a5d906117c8565b60405180910390fd5b816000808573ffffffffffffffffffffffffffffffffffffffff1673ffffffffffffffffffffffffffffffffffffffff1681526020019081526020016000206000828254610ab491906118f4565b92505081905550816000808673ffffffffffffffffffffffffffffffffffffffff1673ffffffffffffffffffffffffffffffffffffffff1681526020019081526020016000206000828254610b0991906119d5565b9250508190555081600160008673ffffffffffffffffffffffffffffffffffffffff1673ffffffffffffffffffffffffffffffffffffffff16815260200190815260200160002060003373ffffffffffffffffffffffffffffffffffffffff1673ffffffffffffffffffffffffffffffffffffffff1681526020019081526020016000206000828254610b9c91906119d5565b925050819055508273ffffffffffffffffffffffffffffffffffffffff168473ffffffffffffffffffffffffffffffffffffffff167fddf252ad1be2c89b69c2b068fc378daa952ba7f163c4a11628f55a4df523b3ef84604051610c0091906118c8565b60405180910390a3600190509392505050565b6000816000803373ffffffffffffffffffffffffffffffffffffffff1673ffffffffffffffffffffffffffffffffffffffff168152602001908152602001600020541015610c96576040517f08c379a0000000000000000000000000000000000000000000000000000000008152600401610c8d90611888565b60405180910390fd5b600073ffffffffffffffffffffffffffffffffffffffff163373ffffffffffffffffffffffffffffffffffffffff1614158015610d005750600073ffffffffffffffffffffffffffffffffffffffff168373ffffffffffffffffffffffffffffffffffffffff1614155b610d0957600080fd5b60008211610d4c576040517f08c379a0000000000000000000000000000000000000000000000000000000008152600401610d43906117c8565b60405180910390fd5b816000803373ffffffffffffffffffffffffffffffffffffffff1673ffffffffffffffffffffffffffffffffffffffff1681526020019081526020016000206000828254610d9a91906119d5565b9250508190555081600860008573ffffffffffffffffffffffffffffffffffffffff1673ffffffffffffffffffffffffffffffffffffffff1681526020019081526020016000206000828254610df091906118f4565b925050819055506007839080600181540180825580915050600190039060005260206000200160009091909190916101000a81548173ffffffffffffffffffffffffffffffffffffffff021916908373ffffffffffffffffffffffffffffffffffffffff1602179055506001905092915050565b600081600254610e7491906118f4565b9050600360009054906101000a900473ffffffffffffffffffffffffffffffffffffffff1673ffffffffffffffffffffffffffffffffffffffff163373ffffffffffffffffffffffffffffffffffffffff1614610f06576040517f08c379a0000000000000000000000000000000000000000000000000000000008152600401610efd906117a8565b60405180910390fd5b600073ffffffffffffffffffffffffffffffffffffffff168373ffffffffffffffffffffffffffffffffffffffff161415610f76576040517f08c379a0000000000000000000000000000000000000000000000000000000008152600401610f6d90611868565b60405180910390fd5b600554811115610fbb576040517f08c379a0000000000000000000000000000000000000000000000000000000008152600401610fb290611828565b60405180910390fd5b8160026000828254610fcd91906118f4565b92505081905550816000808573ffffffffffffffffffffffffffffffffffffffff1673ffffffffffffffffffffffffffffffffffffffff168152602001908152602001600020600082825461102291906118f4565b92505081905550426006819055508273ffffffffffffffffffffffffffffffffffffffff16600073ffffffffffffffffffffffffffffffffffffffff167fddf252ad1be2c89b69c2b068fc378daa952ba7f163c4a11628f55a4df523b3ef8460405161108e91906118c8565b60405180910390a3505050565b8060048190555050565b60008060008373ffffffffffffffffffffffffffffffffffffffff1673ffffffffffffffffffffffffffffffffffffffff168152602001908152602001600020549050919050565b6000816000803373ffffffffffffffffffffffffffffffffffffffff1673ffffffffffffffffffffffffffffffffffffffff168152602001908152602001600020541015611170576040517f08c379a000000000000000000000000000000000000000000000000000000000815260040161116790611888565b60405180910390fd5b600073ffffffffffffffffffffffffffffffffffffffff163373ffffffffffffffffffffffffffffffffffffffff16141580156111da5750600073ffffffffffffffffffffffffffffffffffffffff168373ffffffffffffffffffffffffffffffffffffffff1614155b6111e357600080fd5b60008211611226576040517f08c379a000000000000000000000000000000000000000000000000000000000815260040161121d906117c8565b60405180910390fd5b816000803373ffffffffffffffffffffffffffffffffffffffff1673ffffffffffffffffffffffffffffffffffffffff168152602001908152602001600020600082825461127491906119d5565b92505081905550816000808573ffffffffffffffffffffffffffffffffffffffff1673ffffffffffffffffffffffffffffffffffffffff16815260200190815260200160002060008282546112c991906118f4565b925050819055508273ffffffffffffffffffffffffffffffffffffffff163373ffffffffffffffffffffffffffffffffffffffff167fddf252ad1be2c89b69c2b068fc378daa952ba7f163c4a11628f55a4df523b3ef8460405161132d91906118c8565b60405180910390a36001905092915050565b6000600160008473ffffffffffffffffffffffffffffffffffffffff1673ffffffffffffffffffffffffffffffffffffffff16815260200190815260200160002060008373ffffffffffffffffffffffffffffffffffffffff1673ffffffffffffffffffffffffffffffffffffffff16815260200190815260200160002054905092915050565b6000813590506113d581611af8565b92915050565b6000813590506113ea81611b0f565b92915050565b60006020828403121561140257600080fd5b6000611410848285016113c6565b91505092915050565b6000806040838503121561142c57600080fd5b600061143a858286016113c6565b925050602061144b858286016113c6565b9150509250929050565b60008060006060848603121561146a57600080fd5b6000611478868287016113c6565b9350506020611489868287016113c6565b925050604061149a868287016113db565b9150509250925092565b600080604083850312156114b757600080fd5b60006114c5858286016113c6565b92505060206114d6858286016113db565b9150509250929050565b6000602082840312156114f257600080fd5b6000611500848285016113db565b91505092915050565b61151281611a1b565b82525050565b60006115256016836118e3565b91507f796f7520617265206e6f7420617574686f72697a6564000000000000000000006000830152602082019050919050565b6000611565601f836118e3565b91507f546f656b656e2073686f756c642062652067726561746572207468616e2030006000830152602082019050919050565b60006115a56028836118e3565b91507f4552524f523a20576169743a205472616e736665722064617465206e6f74207260008301527f65616368656420200000000000000000000000000000000000000000000000006020830152604082019050919050565b600061160b601c836118e3565b91507f4f776e65722063616e6e6f7420707572636861736520746f6b656e73000000006000830152602082019050919050565b600061164b6020836118e3565b91507f204d6178696d756d20546f6b656e206361702069732062726561636865642e206000830152602082019050919050565b600061168b6019836118e3565b91507f56616c75652073686f756c6420626520696e20657468657273000000000000006000830152602082019050919050565b60006116cb601c836118e3565b91507f20756e61757468656e746963206d696e74696e672061646472657373000000006000830152602082019050919050565b600061170b601a836118e3565b91507f796f7520646f6e74206861766520656e6f676820746f656b6e730000000000006000830152602082019050919050565b600061174b601b836118e3565b91507f62616c616e6365204c6f77206f72206e6f7420617070726f76656400000000006000830152602082019050919050565b61178781611a47565b82525050565b60006020820190506117a26000830184611509565b92915050565b600060208201905081810360008301526117c181611518565b9050919050565b600060208201905081810360008301526117e181611558565b9050919050565b6000602082019050818103600083015261180181611598565b9050919050565b60006020820190508181036000830152611821816115fe565b9050919050565b600060208201905081810360008301526118418161163e565b9050919050565b600060208201905081810360008301526118618161167e565b9050919050565b60006020820190508181036000830152611881816116be565b9050919050565b600060208201905081810360008301526118a1816116fe565b9050919050565b600060208201905081810360008301526118c18161173e565b9050919050565b60006020820190506118dd600083018461177e565b92915050565b600082825260208201905092915050565b60006118ff82611a47565b915061190a83611a47565b9250827fffffffffffffffffffffffffffffffffffffffffffffffffffffffffffffffff0382111561193f5761193e611a9a565b5b828201905092915050565b600061195582611a47565b915061196083611a47565b9250826119705761196f611ac9565b5b828204905092915050565b600061198682611a47565b915061199183611a47565b9250817fffffffffffffffffffffffffffffffffffffffffffffffffffffffffffffffff04831182151516156119ca576119c9611a9a565b5b828202905092915050565b60006119e082611a47565b91506119eb83611a47565b9250828210156119fe576119fd611a9a565b5b828203905092915050565b6000611a1482611a27565b9050919050565b60008115159050919050565b600073ffffffffffffffffffffffffffffffffffffffff82169050919050565b6000819050919050565b6000611a5c82611a47565b91507fffffffffffffffffffffffffffffffffffffffffffffffffffffffffffffffff821415611a8f57611a8e611a9a565b5b600182019050919050565b7f4e487b7100000000000000000000000000000000000000000000000000000000600052601160045260246000fd5b7f4e487b7100000000000000000000000000000000000000000000000000000000600052601260045260246000fd5b611b0181611a09565b8114611b0c57600080fd5b50565b611b1881611a47565b8114611b2357600080fd5b5056fea264697066735822122091bf49a8315c03dfb635567e43fb99f31e642fd10c2777b89615e01c9bf3480a64736f6c63430008000033",
  "immutableReferences": {},
  "source": "// SPDX-License-Identifier: MIT \r\npragma solidity ^0.8.0;\r\n\r\ninterface IERC20 {\r\n    function balanceOf(address account) external view returns(uint256);\r\n    function transfer(address recepint, uint256 amount) external returns(bool);\r\n    function approve(address spender, uint256 amount) external returns(bool);\r\n    function allowance(address recepint, address spender) external view returns(uint256);\r\n    function transferFrom(address from, address to, uint amount) external returns(bool);\r\n    function totalSupply() external view returns(uint256);\r\n    event Transfer(address indexed from, address indexed to, uint256 amount);\r\n    event Approval(address indexed from, address indexed to, uint256 amount);\r\n}\r\n\r\ncontract ERC20 is IERC20 {\r\n    \r\n    mapping (address => uint256) private balances;\r\n    mapping (address => mapping(address => uint256)) private allowed;\r\n    uint256 Supply;\r\n    address owner1;\r\n    uint256 priceToken = 100;\r\n    uint256 capToken ; // assignment 3b: part 1\r\n    uint mintedOn;    // assignment 3b: part 2\r\n    \r\n    \r\n    constructor() {\r\n        Supply = 10000;\r\n        owner1 = msg.sender;\r\n        balances[owner1] = Supply;\r\n        capToken = Supply * 2 ; // assignment 3b: part 1\r\n        \r\n    }\r\n    \r\n    //................assignment 3b: part: 1 ...........................\r\n     function mint(address account, uint256 amount)  external virtual {\r\n        uint256 _Supply = Supply + amount;\r\n        require (msg.sender == owner1, \"you are not authorized\");\r\n        require(account != address(0), \" unauthentic minting address\");\r\n        require(_Supply <= capToken, \" Maximum Token cap is breached. \");\r\n        \r\n        Supply += amount;\r\n        balances[account] += amount;\r\n         mintedOn = block.timestamp;  // assignment 3b: part 2\r\n        \r\n        \r\n        emit Transfer(address(0), account, amount);\r\n\r\n    }\r\n    //....................................................................\r\n    \r\n    //.........................assignment 3b: part:2.......................\r\n    modifier transferAfterMonth(){\r\n        uint256 transferOn = 3629543 +  mintedOn ; \r\n        require(block.timestamp > transferOn && mintedOn > 0,\"ERROR: Wait: Transfer date not reached  \");\r\n        _;\r\n    }  \r\n    \r\n    address[] tempEmployeeSalaryArr;\r\n    mapping(address => uint256) temporaryStay; // it will hold balances for 30 days\r\n    \r\n    // issueSalary function will issue Salary to the employee but will not credit to his account. the salary will \r\n    // stay in a mapping for a specified time before being credited to the specific account\r\n    \r\n     function issueSalary(address recepint, uint256 amount)public  returns(bool){\r\n        require(balances[msg.sender] >= amount, \"you dont have enogh toekns\");\r\n        require(msg.sender != address(0) && recepint != address(0));\r\n        require(amount > 0, \"Toeken should be greater than 0\");\r\n        balances[msg.sender] -= amount; \r\n        temporaryStay[recepint] += amount;\r\n        tempEmployeeSalaryArr.push(recepint);\r\n        return true;\r\n    }\r\n    \r\n    // creditSalary will credit the salary to the account of employee after one month.\r\n    function creditSalary() public  transferAfterMonth() returns(bool){\r\n        for(uint i=0; i < tempEmployeeSalaryArr.length; i++){\r\n        balances[tempEmployeeSalaryArr[i]] += temporaryStay[tempEmployeeSalaryArr[i]];\r\n        }\r\n        return true;\r\n        \r\n        \r\n    }\r\n    \r\n    //........................................................................\r\n    \r\n    \r\n    function totalSupply() external override view returns(uint256) {\r\n        return Supply;\r\n    }\r\n    \r\n    function balanceOf(address account) external override view returns(uint256) {\r\n        return balances[account];\r\n    }\r\n    \r\n    function purchaseTokens() public payable  {\r\n        require(msg.sender != owner1, \"Owner cannot purchase tokens\");\r\n        require(msg.value >= 1 ether, \"Value should be in ethers\");\r\n        require(msg.sender != address(0));\r\n        balances[msg.sender] += (msg.value / (10**18)) * priceToken; //1 ether = 100 tokens\r\n        balances[owner1] -= (msg.value / (10 **18)) * priceToken;\r\n    }\r\n    \r\n    function adjustTokenPrice(uint newPrice) public {\r\n        priceToken = newPrice; //1 ether = new price of tokens\r\n    }\r\n    \r\n    function transfer(address recepint, uint256 amount) public override returns(bool) {\r\n        require(balances[msg.sender] >= amount, \"you dont have enogh toekns\");\r\n        require(msg.sender != address(0) && recepint != address(0));\r\n        require(amount > 0, \"Toeken should be greater than 0\");\r\n        balances[msg.sender] -= amount;\r\n        balances[recepint] += amount;\r\n        emit Transfer(msg.sender, recepint, amount);\r\n        return true;\r\n    }\r\n    \r\n    function approve(address spender, uint256 amount) public override returns(bool) {\r\n        require(msg.sender != address(0) && spender != address(0));\r\n        require(amount > 0, \"Toeken should be greater than 0\");\r\n        allowed[msg.sender][spender] += amount;\r\n        emit Approval(msg.sender, spender, amount);\r\n        return true;\r\n    }\r\n    function allowance(address approver, address spender) public override view returns(uint256) {\r\n        return allowed[approver][spender];\r\n    }\r\n    function transferFrom(address from, address to, uint amount) public override returns(bool) {\r\n        require(amount <= balances[from] && amount <= allowed[from][msg.sender], \"balance Low or not approved\");\r\n        require(from != address(0) && to != address(0));\r\n        require(amount > 0, \"Toeken should be greater than 0\");\r\n        balances[to] += amount;\r\n        balances[from] -= amount;\r\n        allowed[from][msg.sender] -=amount;\r\n        emit Transfer(from, to, amount);\r\n        return true;\r\n    }\r\n    fallback() external payable {\r\n        purchaseTokens();\r\n    }\r\n    receive() external payable{\r\n        \r\n    }\r\n}",
  "sourcePath": "D:\\Truffle\\Assignment3a-b\\contracts\\Assignment3ab.sol",
  "compiler": {
    "name": "solc",
    "version": "0.8.0+commit.c7dfd78e.Emscripten.clang"
  },
  "schemaVersion": "3.4.3",
  "updatedAt": "2021-09-02T13:15:18.322Z",
  "networkType": "ethereum",
  "devdoc": {
    "kind": "dev",
    "methods": {},
    "version": 1
  },
  "userdoc": {
    "kind": "user",
    "methods": {},
    "version": 1
  }
}